:1000000017C031C030C02FC092C02DC02CC02BC033
:100010002AC029C028C027C026C025C024C0003758
:10002000003800360101010101010102040810201D
:1000300011241FBECFE5D2E0DEBFCDBF10E0A0E6A9
:10004000B0E0E6E0F5E002C005900D92A236B107FF
:10005000D9F720E0A2E6B0E001C01D92AA37B207AE
:10006000E1F7B0D04EC2CCCFECE2F0E08491E6E212
:10007000F0E0E491EE2361F0F0E0EE5DFF4FA4913B
:10008000B0E0EC91E82381E090E021F480E0089575
:1000900080E090E00895282F30E0F901E65DFF4F01
:1000A0009491F901EC5DFF4FE491EE23A1F08111F1
:1000B00013C08AB58F738ABDF0E0E05EFF4FA49154
:1000C000B0E08FB761110BC0F8942C91E92FE09547
:1000D000E223EC938FBF08958AB58F7CECCFF89420
:1000E000EC91E92BF6CF90E0FC01E65DFF4F249107
:1000F0008C5D9F4FFC0184918823A1F090E0FC016E
:10010000E25EFF4FA491B0E0805E9F4FFC018491BE
:100110008FB7611108C0F8949C91E22FE095E92314
:10012000EC938FBF0895F894EC91E22BF9CF78947B
:100130001F920F920FB60F9211242F933F938F931C
:100140009F93AF93BF938091760090917700A09199
:100150007800B09179003091750026E0230F2D379B
:1001600068F129E8230F0396A11DB11D20937500A6
:100170008093760090937700A0937800B0937900F5
:100180008091710090917200A0917300B091740001
:100190000196A11DB11D8093710090937200A093F0
:1001A0007300B0937400BF91AF919F918F913F9175
:1001B0002F910F900FBE0F901F9018950296A11DC2
:1001C000B11DD4CF81E2E1E0F0E08093570084914B
:1001D00081BFF89480E886BD84E086BD789480B7BE
:1001E000806880BF80B7806480BF8CB580648CBD20
:1001F0008FEF8DBD80B7807F846080BF89B78460BA
:1002000089BF83B7887F83BF8AB58C7F81608ABDB1
:1002100083B7877F83BF83B7887F826083BF86B1C0
:10022000887F836086B9379A61E080E05CDF60E0B8
:1002300080E031DF61E081E056DF60E081E02BDFCC
:1002400060E082E050DF10DF21E0892B09F420E03C
:1002500020936F002FB7F8948091760090917700EB
:10026000A0917800B09179002FBF80936B0090939C
:100270006C00A0936D00B0936E0081E080936000ED
:1002800010926A00C1E0D3E014E002E08FB7F89466
:10029000C0907600D0907700E0907800F0907900E0
:1002A0008FBF80917000882309F4ACC0823009F4BC
:1002B0006BC040F5813051F78091620090916300EE
:1002C000A0916400B0916500A7019601281B390B2D
:1002D0004A0B5B0BDA01C901883E9340A105B105C9
:1002E000A8F260E080E0D7DE60E081E0D4DE009339
:1002F0007000C0926200D0926300E0926400F092BD
:100300006500C4CF833009F45EC0843009F0BECFED
:100310008091620090916300A0916400B0916500AB
:10032000C81AD90AEA0AFB0A40EAC4164BEBD406FB
:100330004DE0E406F10408F4A9CF10926600109293
:10034000670010926800109269008EDE21E0892B10
:1003500009F420E020936F002FB7F8948091760085
:1003600090917700A0917800B09179002FBF809391
:100370006B0090936C00A0936D00B0936E00109290
:100380007000C093600082CF809162009091630002
:10039000A0916400B0916500A7019601281B390B5C
:1003A0004A0B5B0BDA01C901803D9740A105B105FD
:1003B00008F46CCF61E080E06EDE61E081E06BDE2E
:1003C000D093700096CF8091620090916300A091CD
:1003D0006400B0916500A7019601281B390B4A0BF8
:1003E0005B0BDA01C901883E9340A105B10508F411
:1003F0004DCF60E080E04FDE60E081E04CDE1093A6
:10040000700077CF31DE21E0892B09F420E0809164
:100410006F00281709F458C040916B0050916C0090
:1004200060916D0070916E00C0926B00D0926C0074
:10043000E0926D00F0926E0020936F00809160005A
:10044000811140C0D701C6018A5F9109A109B10994
:10045000841B950BA60BB70B8F3E9240A105B105EF
:1004600008F014CF60916A006C2760936A0081E005
:1004700012DE8091660090916700A0916800B091B3
:1004800069000196A11DB11D8093660090936700DD
:10049000A0936800B09369000F97A105B10508F417
:1004A000F5CE61E080E0F7DD61E081E0F4DDC0934E
:1004B0007000C0926200D0926300E0926400F092FB
:1004C00065005FCF1092600080916B0090916C008E
:1004D000A0916D00B0916E00C81AD90AEA0AFB0A11
:1004E00089E8C81683E1D806E104F10408F4CECE09
:1004F00010926600109267001092680010926900D6
:06050000C5CEF894FFCF08
:020506000100F2
:00000001FF
